{
  "address": "0x89086E8e5AE2fF9260F3ef469f31aFc1E36D0191",
  "contractName": "Taamin",
  "abi": [
    {
      "inputs": [],
      "stateMutability": "nonpayable",
      "type": "constructor"
    },
    {
      "inputs": [],
      "name": "EndDateEarlierThanStartDate",
      "type": "error"
    },
    {
      "inputs": [],
      "name": "InsuranceAlreadyRequested",
      "type": "error"
    },
    {
      "inputs": [],
      "name": "InsuranceInActivePeriod",
      "type": "error"
    },
    {
      "inputs": [],
      "name": "LiquidtyAlreadyWithdrawn",
      "type": "error"
    },
    {
      "inputs": [],
      "name": "NotEnoughInsuranceLiquidity",
      "type": "error"
    },
    {
      "inputs": [],
      "name": "NotEnoughTokenBalance",
      "type": "error"
    },
    {
      "inputs": [],
      "name": "PoolIdNotExist",
      "type": "error"
    },
    {
      "inputs": [],
      "name": "ReimburesementAlreadyReceived",
      "type": "error"
    },
    {
      "inputs": [],
      "name": "ReimburesementRequirementNotMet",
      "type": "error"
    },
    {
      "inputs": [],
      "name": "RequesterUnauthorized",
      "type": "error"
    },
    {
      "inputs": [],
      "name": "TransferFailed",
      "type": "error"
    },
    {
      "anonymous": false,
      "inputs": [
        {
          "indexed": false,
          "internalType": "uint16",
          "name": "poolId",
          "type": "uint16"
        },
        {
          "indexed": false,
          "internalType": "address",
          "name": "tokenAddress",
          "type": "address"
        },
        {
          "indexed": false,
          "internalType": "int256",
          "name": "basePrice",
          "type": "int256"
        },
        {
          "indexed": false,
          "internalType": "int256",
          "name": "thresholdPrice",
          "type": "int256"
        },
        {
          "indexed": false,
          "internalType": "uint8",
          "name": "fee",
          "type": "uint8"
        },
        {
          "indexed": false,
          "internalType": "uint256",
          "name": "liquidityAdded",
          "type": "uint256"
        },
        {
          "indexed": false,
          "internalType": "uint256",
          "name": "startDate",
          "type": "uint256"
        },
        {
          "indexed": false,
          "internalType": "uint256",
          "name": "endDate",
          "type": "uint256"
        }
      ],
      "name": "PoolUpdated",
      "type": "event"
    },
    {
      "anonymous": false,
      "inputs": [
        {
          "indexed": false,
          "internalType": "uint16",
          "name": "poolId",
          "type": "uint16"
        },
        {
          "indexed": false,
          "internalType": "address",
          "name": "tokenAddress",
          "type": "address"
        },
        {
          "indexed": false,
          "internalType": "address",
          "name": "insuranceRequester",
          "type": "address"
        },
        {
          "indexed": false,
          "internalType": "uint256",
          "name": "liquidtyToInsure",
          "type": "uint256"
        },
        {
          "indexed": false,
          "internalType": "uint256",
          "name": "fee",
          "type": "uint256"
        }
      ],
      "name": "TaaminRequestCreated",
      "type": "event"
    },
    {
      "inputs": [
        {
          "internalType": "uint16",
          "name": "_id",
          "type": "uint16"
        },
        {
          "internalType": "uint256",
          "name": "_amount",
          "type": "uint256"
        }
      ],
      "name": "getReimbursement",
      "outputs": [
        {
          "internalType": "uint256",
          "name": "",
          "type": "uint256"
        }
      ],
      "stateMutability": "view",
      "type": "function"
    },
    {
      "inputs": [
        {
          "internalType": "uint16",
          "name": "_id",
          "type": "uint16"
        },
        {
          "internalType": "uint256",
          "name": "_amount",
          "type": "uint256"
        }
      ],
      "name": "getUserFee",
      "outputs": [
        {
          "internalType": "uint256",
          "name": "",
          "type": "uint256"
        }
      ],
      "stateMutability": "view",
      "type": "function"
    },
    {
      "inputs": [],
      "name": "id",
      "outputs": [
        {
          "internalType": "uint16",
          "name": "",
          "type": "uint16"
        }
      ],
      "stateMutability": "view",
      "type": "function"
    },
    {
      "inputs": [
        {
          "internalType": "address",
          "name": "_tokenAddress",
          "type": "address"
        },
        {
          "internalType": "address",
          "name": "_priceFeed",
          "type": "address"
        },
        {
          "internalType": "int256",
          "name": "_insuranceLossCoverage",
          "type": "int256"
        },
        {
          "internalType": "uint8",
          "name": "_fee",
          "type": "uint8"
        },
        {
          "internalType": "uint256",
          "name": "_startDateFromDeployInSeconds",
          "type": "uint256"
        },
        {
          "internalType": "uint256",
          "name": "_endDateFromDeployInSeconds",
          "type": "uint256"
        }
      ],
      "name": "initPool",
      "outputs": [
        {
          "components": [
            {
              "internalType": "uint16",
              "name": "id",
              "type": "uint16"
            },
            {
              "internalType": "address",
              "name": "tokenAddress",
              "type": "address"
            },
            {
              "internalType": "uint256",
              "name": "totalLiquidity",
              "type": "uint256"
            },
            {
              "internalType": "uint256",
              "name": "priceLossCover",
              "type": "uint256"
            },
            {
              "internalType": "int256",
              "name": "basePrice",
              "type": "int256"
            },
            {
              "internalType": "int256",
              "name": "insuranceTreshold",
              "type": "int256"
            },
            {
              "internalType": "uint8",
              "name": "fee",
              "type": "uint8"
            },
            {
              "internalType": "uint256",
              "name": "startDate",
              "type": "uint256"
            },
            {
              "internalType": "uint256",
              "name": "endDate",
              "type": "uint256"
            }
          ],
          "internalType": "struct DataTypes.PoolData",
          "name": "",
          "type": "tuple"
        }
      ],
      "stateMutability": "nonpayable",
      "type": "function"
    },
    {
      "inputs": [
        {
          "internalType": "uint16",
          "name": "",
          "type": "uint16"
        },
        {
          "internalType": "address",
          "name": "",
          "type": "address"
        }
      ],
      "name": "insuranceRequests",
      "outputs": [
        {
          "internalType": "uint16",
          "name": "id",
          "type": "uint16"
        },
        {
          "internalType": "address",
          "name": "insuranceRequester",
          "type": "address"
        },
        {
          "internalType": "uint256",
          "name": "liquidtyToInsure",
          "type": "uint256"
        },
        {
          "internalType": "uint256",
          "name": "reimbursementAmount",
          "type": "uint256"
        },
        {
          "internalType": "uint256",
          "name": "fee",
          "type": "uint256"
        },
        {
          "internalType": "bool",
          "name": "reimbursementReceived",
          "type": "bool"
        }
      ],
      "stateMutability": "view",
      "type": "function"
    },
    {
      "inputs": [
        {
          "internalType": "uint16",
          "name": "",
          "type": "uint16"
        },
        {
          "internalType": "address",
          "name": "",
          "type": "address"
        }
      ],
      "name": "liquiditySupplyList",
      "outputs": [
        {
          "internalType": "uint16",
          "name": "id",
          "type": "uint16"
        },
        {
          "internalType": "address",
          "name": "liquidityProvider",
          "type": "address"
        },
        {
          "internalType": "uint256",
          "name": "liquidityAdded",
          "type": "uint256"
        },
        {
          "internalType": "bool",
          "name": "liquidityWithdrawn",
          "type": "bool"
        }
      ],
      "stateMutability": "view",
      "type": "function"
    },
    {
      "inputs": [
        {
          "internalType": "uint16",
          "name": "",
          "type": "uint16"
        }
      ],
      "name": "poolDataList",
      "outputs": [
        {
          "internalType": "uint16",
          "name": "id",
          "type": "uint16"
        },
        {
          "internalType": "address",
          "name": "tokenAddress",
          "type": "address"
        },
        {
          "internalType": "uint256",
          "name": "totalLiquidity",
          "type": "uint256"
        },
        {
          "internalType": "uint256",
          "name": "priceLossCover",
          "type": "uint256"
        },
        {
          "internalType": "int256",
          "name": "basePrice",
          "type": "int256"
        },
        {
          "internalType": "int256",
          "name": "insuranceTreshold",
          "type": "int256"
        },
        {
          "internalType": "uint8",
          "name": "fee",
          "type": "uint8"
        },
        {
          "internalType": "uint256",
          "name": "startDate",
          "type": "uint256"
        },
        {
          "internalType": "uint256",
          "name": "endDate",
          "type": "uint256"
        }
      ],
      "stateMutability": "view",
      "type": "function"
    },
    {
      "inputs": [
        {
          "internalType": "uint16",
          "name": "_id",
          "type": "uint16"
        },
        {
          "internalType": "uint256",
          "name": "_amount",
          "type": "uint256"
        }
      ],
      "name": "requestInsurance",
      "outputs": [],
      "stateMutability": "nonpayable",
      "type": "function"
    },
    {
      "inputs": [
        {
          "internalType": "uint16",
          "name": "_id",
          "type": "uint16"
        }
      ],
      "name": "requestReimbursement",
      "outputs": [],
      "stateMutability": "nonpayable",
      "type": "function"
    },
    {
      "inputs": [
        {
          "internalType": "uint16",
          "name": "_id",
          "type": "uint16"
        },
        {
          "internalType": "uint256",
          "name": "_amount",
          "type": "uint256"
        }
      ],
      "name": "supplyPool",
      "outputs": [
        {
          "internalType": "uint256",
          "name": "",
          "type": "uint256"
        }
      ],
      "stateMutability": "nonpayable",
      "type": "function"
    },
    {
      "inputs": [
        {
          "internalType": "uint16",
          "name": "_id",
          "type": "uint16"
        }
      ],
      "name": "withdrawPool",
      "outputs": [],
      "stateMutability": "nonpayable",
      "type": "function"
    }
  ],
  "bytecode": "0x608060405234801561001057600080fd5b5060008060006101000a81548161ffff021916908361ffff160217905550612b6c8061003d6000396000f3fe608060405234801561001057600080fd5b50600436106100a95760003560e01c806382c804dd1161007157806382c804dd146101a6578063a5ff706b146101c2578063ae3059ac146101f2578063af640d0f1461020e578063b307fc751461022c578063dca5ed4814610264576100a9565b80630ae2e871146100ae5780631f563bfd146100e15780635fae9b921461011157806368c704a2146101465780637bbece7514610176575b600080fd5b6100c860048036038101906100c39190611f57565b610280565b6040516100d89493929190611fe9565b60405180910390f35b6100fb60048036038101906100f691906120c9565b6102f8565b6040516101089190612258565b60405180910390f35b61012b60048036038101906101269190611f57565b6106c5565b60405161013d96959493929190612274565b60405180910390f35b610160600480360381019061015b91906122d5565b610749565b60405161016d9190612315565b60405180910390f35b610190600480360381019061018b91906122d5565b6107c6565b60405161019d9190612315565b60405180910390f35b6101c060048036038101906101bb91906122d5565b610c53565b005b6101dc60048036038101906101d791906122d5565b6111be565b6040516101e99190612315565b60405180910390f35b61020c60048036038101906102079190612330565b61123e565b005b6102166117a3565b604051610223919061235d565b60405180910390f35b61024660048036038101906102419190612330565b6117b5565b60405161025b99989796959493929190612396565b60405180910390f35b61027e60048036038101906102799190612330565b61183e565b005b6004602052816000526040600020602052806000526040600020600091509150508060000160009054906101000a900461ffff16908060000160029054906101000a900473ffffffffffffffffffffffffffffffffffffffff16908060010154908060020160009054906101000a900460ff16905084565b610300611dbb565b85600160006101000a81548173ffffffffffffffffffffffffffffffffffffffff021916908373ffffffffffffffffffffffffffffffffffffffff16021790555086600260006101000a81548173ffffffffffffffffffffffffffffffffffffffff021916908373ffffffffffffffffffffffffffffffffffffffff16021790555086600060026101000a81548173ffffffffffffffffffffffffffffffffffffffff021916908373ffffffffffffffffffffffffffffffffffffffff16021790555060006001846103d29190612452565b426103dd91906124ac565b905060006001846103ee9190612452565b426103f991906124ac565b9050808111610434576040517f14cc095100000000000000000000000000000000000000000000000000000000815260040160405180910390fd5b61043c611dbb565b6000610446611d1a565b90506000896064836104589190612531565b610462919061259b565b8261046d91906126b2565b905060008054906101000a900461ffff16836000019061ffff16908161ffff16815250508b836020019073ffffffffffffffffffffffffffffffffffffffff16908173ffffffffffffffffffffffffffffffffffffffff16815250508983606001818152505081836080018181525050808360a0018181525050888360c0019060ff16908160ff1681525050848360e0018181525050838361010001818152505082600360008060009054906101000a900461ffff1661ffff1661ffff16815260200190815260200160002060008201518160000160006101000a81548161ffff021916908361ffff16021790555060208201518160000160026101000a81548173ffffffffffffffffffffffffffffffffffffffff021916908373ffffffffffffffffffffffffffffffffffffffff16021790555060408201518160010155606082015181600201556080820151816003015560a0820151816004015560c08201518160050160006101000a81548160ff021916908360ff16021790555060e0820151816006015561010082015181600701559050507f60208157873c458e968e0270eaeab9e1f660d5a1ce88ca3efe8ed007b366f7ec60008054906101000a900461ffff16600060029054906101000a900473ffffffffffffffffffffffffffffffffffffffff1684848d60008b8b60405161067298979695949392919061278b565b60405180910390a160016000808282829054906101000a900461ffff166106999190612809565b92506101000a81548161ffff021916908361ffff16021790555082955050505050509695505050505050565b6005602052816000526040600020602052806000526040600020600091509150508060000160009054906101000a900461ffff16908060000160029054906101000a900473ffffffffffffffffffffffffffffffffffffffff16908060010154908060020154908060030154908060040160009054906101000a900460ff16905086565b600080600360008561ffff1661ffff16815260200190815260200160002060020154905060008160648561077d9190612841565b6107879190612452565b846107929190612872565b90506000818583876107a49190612872565b6107ae9190612452565b6107b89190612841565b905080935050505092915050565b60008260008054906101000a900461ffff1661ffff168161ffff161115610819576040517f38e7d4f200000000000000000000000000000000000000000000000000000000815260040160405180910390fd5b600360008561ffff1661ffff168152602001908152602001600020600601544210610870576040517fdb589d0800000000000000000000000000000000000000000000000000000000815260040160405180910390fd5b610878611e24565b6000600260009054906101000a900473ffffffffffffffffffffffffffffffffffffffff1673ffffffffffffffffffffffffffffffffffffffff166323b872dd3330886040518463ffffffff1660e01b81526004016108d9939291906128a6565b6020604051808303816000875af11580156108f8573d6000803e3d6000fd5b505050506040513d601f19601f8201168201806040525081019061091c9190612909565b9050801561096d5784600360008060009054906101000a900461ffff1661ffff1661ffff168152602001908152602001600020600101600082825461096191906124ac565b9250508190555061099f565b6040517f90b8ec1800000000000000000000000000000000000000000000000000000000815260040160405180910390fd5b85826000019061ffff16908161ffff168152505033826020019073ffffffffffffffffffffffffffffffffffffffff16908173ffffffffffffffffffffffffffffffffffffffff16815250508482604001818152505081600460008861ffff1661ffff16815260200190815260200160002060003373ffffffffffffffffffffffffffffffffffffffff1673ffffffffffffffffffffffffffffffffffffffff16815260200190815260200160002060008201518160000160006101000a81548161ffff021916908361ffff16021790555060208201518160000160026101000a81548173ffffffffffffffffffffffffffffffffffffffff021916908373ffffffffffffffffffffffffffffffffffffffff1602179055506040820151816001015560608201518160020160006101000a81548160ff0219169083151502179055509050507f60208157873c458e968e0270eaeab9e1f660d5a1ce88ca3efe8ed007b366f7ec86600360008961ffff1661ffff16815260200190815260200160002060000160029054906101000a900473ffffffffffffffffffffffffffffffffffffffff16600360008a61ffff1661ffff16815260200190815260200160002060030154600360008b61ffff1661ffff16815260200190815260200160002060040154600360008c61ffff1661ffff16815260200190815260200160002060050160009054906101000a900460ff16600360008d61ffff1661ffff16815260200190815260200160002060010154600360008e61ffff1661ffff16815260200190815260200160002060060154600360008f61ffff1661ffff16815260200190815260200160002060070154604051610c21989796959493929190612936565b60405180910390a1600360008761ffff1661ffff16815260200190815260200160002060010154935050505092915050565b8160008054906101000a900461ffff1661ffff168161ffff161115610ca4576040517f38e7d4f200000000000000000000000000000000000000000000000000000000815260040160405180910390fd5b6000600360008561ffff1661ffff168152602001908152602001600020600101549050600360008561ffff1661ffff168152602001908152602001600020600701544211610d1e576040517fdb589d0800000000000000000000000000000000000000000000000000000000815260040160405180910390fd5b6000600260009054906101000a900473ffffffffffffffffffffffffffffffffffffffff1673ffffffffffffffffffffffffffffffffffffffff166370a08231336040518263ffffffff1660e01b8152600401610d7b91906129b4565b602060405180830381865afa158015610d98573d6000803e3d6000fd5b505050506040513d601f19601f82011682018060405250810190610dbc91906129e4565b905083811015610df8576040517f5dd3b4d100000000000000000000000000000000000000000000000000000000815260040160405180910390fd5b6000600560008761ffff1661ffff16815260200190815260200160002060003373ffffffffffffffffffffffffffffffffffffffff1673ffffffffffffffffffffffffffffffffffffffff1681526020019081526020016000206001015414610e8d576040517fc5ea839600000000000000000000000000000000000000000000000000000000815260040160405180910390fd5b610e95611e68565b6000610ea187876111be565b90506000610eaf8888610749565b905084811115610eeb576040517f3f735c4f00000000000000000000000000000000000000000000000000000000815260040160405180910390fd5b6000600260009054906101000a900473ffffffffffffffffffffffffffffffffffffffff1673ffffffffffffffffffffffffffffffffffffffff166323b872dd3330866040518463ffffffff1660e01b8152600401610f4c939291906128a6565b6020604051808303816000875af1158015610f6b573d6000803e3d6000fd5b505050506040513d601f19601f82011682018060405250810190610f8f9190612909565b905080610fc8576040517f90b8ec1800000000000000000000000000000000000000000000000000000000815260040160405180910390fd5b88846000019061ffff16908161ffff168152505033846020019073ffffffffffffffffffffffffffffffffffffffff16908173ffffffffffffffffffffffffffffffffffffffff168152505087846040018181525050818460600181815250508284608001818152505083600560008b61ffff1661ffff16815260200190815260200160002060003373ffffffffffffffffffffffffffffffffffffffff1673ffffffffffffffffffffffffffffffffffffffff16815260200190815260200160002060008201518160000160006101000a81548161ffff021916908361ffff16021790555060208201518160000160026101000a81548173ffffffffffffffffffffffffffffffffffffffff021916908373ffffffffffffffffffffffffffffffffffffffff16021790555060408201518160010155606082015181600201556080820151816003015560a08201518160040160006101000a81548160ff0219169083151502179055509050507fe75f8ce4861402c7eb7a1d6133f6c16d2ba64b25aac56b6c418edaebb7afd9e689600360008c61ffff1661ffff16815260200190815260200160002060000160029054906101000a900473ffffffffffffffffffffffffffffffffffffffff16338b876040516111ab959493929190612a11565b60405180910390a1505050505050505050565b600080600360008561ffff1661ffff1681526020019081526020016000206001015490506000600360008661ffff1661ffff16815260200190815260200160002060050160009054906101000a900460ff1660ff169050600060648261ffff16846112299190612452565b6112339190612841565b905050505092915050565b8060008054906101000a900461ffff1661ffff168161ffff16111561128f576040517f38e7d4f200000000000000000000000000000000000000000000000000000000815260040160405180910390fd5b3373ffffffffffffffffffffffffffffffffffffffff16600460008461ffff1661ffff16815260200190815260200160002060003373ffffffffffffffffffffffffffffffffffffffff1673ffffffffffffffffffffffffffffffffffffffff16815260200190815260200160002060000160029054906101000a900473ffffffffffffffffffffffffffffffffffffffff1673ffffffffffffffffffffffffffffffffffffffff161461136f576040517fbbc5cb1100000000000000000000000000000000000000000000000000000000815260040160405180910390fd5b600360008361ffff1661ffff1681526020019081526020016000206007015442116113c6576040517fdb589d0800000000000000000000000000000000000000000000000000000000815260040160405180910390fd5b60011515600460008461ffff1661ffff16815260200190815260200160002060003373ffffffffffffffffffffffffffffffffffffffff1673ffffffffffffffffffffffffffffffffffffffff16815260200190815260200160002060020160009054906101000a900460ff161515141561146d576040517f2aa0f38c00000000000000000000000000000000000000000000000000000000815260040160405180910390fd5b6000600460008461ffff1661ffff16815260200190815260200160002060003373ffffffffffffffffffffffffffffffffffffffff1673ffffffffffffffffffffffffffffffffffffffff1681526020019081526020016000206001015490506000600260009054906101000a900473ffffffffffffffffffffffffffffffffffffffff1673ffffffffffffffffffffffffffffffffffffffff166323b872dd3033856040518463ffffffff1660e01b815260040161152e939291906128a6565b6020604051808303816000875af115801561154d573d6000803e3d6000fd5b505050506040513d601f19601f820116820180604052508101906115719190612909565b905080156115b35781600360008661ffff1661ffff16815260200190815260200160002060010160008282546115a79190612872565b925050819055506115e5565b6040517f90b8ec1800000000000000000000000000000000000000000000000000000000815260040160405180910390fd5b6001600460008661ffff1661ffff16815260200190815260200160002060003373ffffffffffffffffffffffffffffffffffffffff1673ffffffffffffffffffffffffffffffffffffffff16815260200190815260200160002060020160006101000a81548160ff0219169083151502179055507f60208157873c458e968e0270eaeab9e1f660d5a1ce88ca3efe8ed007b366f7ec84600360008761ffff1661ffff16815260200190815260200160002060000160029054906101000a900473ffffffffffffffffffffffffffffffffffffffff16600360008861ffff1661ffff16815260200190815260200160002060030154600360008961ffff1661ffff16815260200190815260200160002060040154600360008a61ffff1661ffff16815260200190815260200160002060050160009054906101000a900460ff16600360008b61ffff1661ffff16815260200190815260200160002060010154600360008c61ffff1661ffff16815260200190815260200160002060060154600360008d61ffff1661ffff16815260200190815260200160002060070154604051611795989796959493929190612936565b60405180910390a150505050565b60008054906101000a900461ffff1681565b60036020528060005260406000206000915090508060000160009054906101000a900461ffff16908060000160029054906101000a900473ffffffffffffffffffffffffffffffffffffffff16908060010154908060020154908060030154908060040154908060050160009054906101000a900460ff16908060060154908060070154905089565b8060008054906101000a900461ffff1661ffff168161ffff16111561188f576040517f38e7d4f200000000000000000000000000000000000000000000000000000000815260040160405180910390fd5b600360008361ffff1661ffff16815260200190815260200160002060060154421115806118d95750600360008361ffff1661ffff1681526020019081526020016000206007015442115b15611910576040517fdb589d0800000000000000000000000000000000000000000000000000000000815260040160405180910390fd5b3373ffffffffffffffffffffffffffffffffffffffff16600560008461ffff1661ffff16815260200190815260200160002060003373ffffffffffffffffffffffffffffffffffffffff1673ffffffffffffffffffffffffffffffffffffffff16815260200190815260200160002060000160029054906101000a900473ffffffffffffffffffffffffffffffffffffffff1673ffffffffffffffffffffffffffffffffffffffff16146119f0576040517fbbc5cb1100000000000000000000000000000000000000000000000000000000815260040160405180910390fd5b60011515600560008461ffff1661ffff16815260200190815260200160002060003373ffffffffffffffffffffffffffffffffffffffff1673ffffffffffffffffffffffffffffffffffffffff16815260200190815260200160002060040160009054906101000a900460ff1615151415611a97576040517ffa43322000000000000000000000000000000000000000000000000000000000815260040160405180910390fd5b6000611aa1611d1a565b9050600360008461ffff1661ffff16815260200190815260200160002060040154811315611afb576040517ff65ecfbb00000000000000000000000000000000000000000000000000000000815260040160405180910390fd5b6000600560008561ffff1661ffff16815260200190815260200160002060003373ffffffffffffffffffffffffffffffffffffffff1673ffffffffffffffffffffffffffffffffffffffff1681526020019081526020016000206002015490506000600260009054906101000a900473ffffffffffffffffffffffffffffffffffffffff1673ffffffffffffffffffffffffffffffffffffffff166323b872dd3033856040518463ffffffff1660e01b8152600401611bbc939291906128a6565b6020604051808303816000875af1158015611bdb573d6000803e3d6000fd5b505050506040513d601f19601f82011682018060405250810190611bff9190612909565b90508015611ce1576000600560008761ffff1661ffff16815260200190815260200160002060003373ffffffffffffffffffffffffffffffffffffffff1673ffffffffffffffffffffffffffffffffffffffff168152602001908152602001600020600101819055506001600560008761ffff1661ffff16815260200190815260200160002060003373ffffffffffffffffffffffffffffffffffffffff1673ffffffffffffffffffffffffffffffffffffffff16815260200190815260200160002060040160006101000a81548160ff021916908315150217905550611d13565b6040517f90b8ec1800000000000000000000000000000000000000000000000000000000815260040160405180910390fd5b5050505050565b600080600160009054906101000a900473ffffffffffffffffffffffffffffffffffffffff1673ffffffffffffffffffffffffffffffffffffffff1663feaf968c6040518163ffffffff1660e01b815260040160a060405180830381865afa158015611d8a573d6000803e3d6000fd5b505050506040513d601f19601f82011682018060405250810190611dae9190612abb565b5050509150508091505090565b604051806101200160405280600061ffff168152602001600073ffffffffffffffffffffffffffffffffffffffff16815260200160008152602001600081526020016000815260200160008152602001600060ff16815260200160008152602001600081525090565b6040518060800160405280600061ffff168152602001600073ffffffffffffffffffffffffffffffffffffffff168152602001600081526020016000151581525090565b6040518060c00160405280600061ffff168152602001600073ffffffffffffffffffffffffffffffffffffffff1681526020016000815260200160008152602001600081526020016000151581525090565b600080fd5b600061ffff82169050919050565b611ed681611ebf565b8114611ee157600080fd5b50565b600081359050611ef381611ecd565b92915050565b600073ffffffffffffffffffffffffffffffffffffffff82169050919050565b6000611f2482611ef9565b9050919050565b611f3481611f19565b8114611f3f57600080fd5b50565b600081359050611f5181611f2b565b92915050565b60008060408385031215611f6e57611f6d611eba565b5b6000611f7c85828601611ee4565b9250506020611f8d85828601611f42565b9150509250929050565b611fa081611ebf565b82525050565b611faf81611f19565b82525050565b6000819050919050565b611fc881611fb5565b82525050565b60008115159050919050565b611fe381611fce565b82525050565b6000608082019050611ffe6000830187611f97565b61200b6020830186611fa6565b6120186040830185611fbf565b6120256060830184611fda565b95945050505050565b6000819050919050565b6120418161202e565b811461204c57600080fd5b50565b60008135905061205e81612038565b92915050565b600060ff82169050919050565b61207a81612064565b811461208557600080fd5b50565b60008135905061209781612071565b92915050565b6120a681611fb5565b81146120b157600080fd5b50565b6000813590506120c38161209d565b92915050565b60008060008060008060c087890312156120e6576120e5611eba565b5b60006120f489828a01611f42565b965050602061210589828a01611f42565b955050604061211689828a0161204f565b945050606061212789828a01612088565b935050608061213889828a016120b4565b92505060a061214989828a016120b4565b9150509295509295509295565b61215f81611ebf565b82525050565b61216e81611f19565b82525050565b61217d81611fb5565b82525050565b61218c8161202e565b82525050565b61219b81612064565b82525050565b610120820160008201516121b86000850182612156565b5060208201516121cb6020850182612165565b5060408201516121de6040850182612174565b5060608201516121f16060850182612174565b5060808201516122046080850182612183565b5060a082015161221760a0850182612183565b5060c082015161222a60c0850182612192565b5060e082015161223d60e0850182612174565b50610100820151612252610100850182612174565b50505050565b60006101208201905061226e60008301846121a1565b92915050565b600060c0820190506122896000830189611f97565b6122966020830188611fa6565b6122a36040830187611fbf565b6122b06060830186611fbf565b6122bd6080830185611fbf565b6122ca60a0830184611fda565b979650505050505050565b600080604083850312156122ec576122eb611eba565b5b60006122fa85828601611ee4565b925050602061230b858286016120b4565b9150509250929050565b600060208201905061232a6000830184611fbf565b92915050565b60006020828403121561234657612345611eba565b5b600061235484828501611ee4565b91505092915050565b60006020820190506123726000830184611f97565b92915050565b6123818161202e565b82525050565b61239081612064565b82525050565b6000610120820190506123ac600083018c611f97565b6123b9602083018b611fa6565b6123c6604083018a611fbf565b6123d36060830189611fbf565b6123e06080830188612378565b6123ed60a0830187612378565b6123fa60c0830186612387565b61240760e0830185611fbf565b612415610100830184611fbf565b9a9950505050505050505050565b7f4e487b7100000000000000000000000000000000000000000000000000000000600052601160045260246000fd5b600061245d82611fb5565b915061246883611fb5565b9250817fffffffffffffffffffffffffffffffffffffffffffffffffffffffffffffffff04831182151516156124a1576124a0612423565b5b828202905092915050565b60006124b782611fb5565b91506124c283611fb5565b9250827fffffffffffffffffffffffffffffffffffffffffffffffffffffffffffffffff038211156124f7576124f6612423565b5b828201905092915050565b7f4e487b7100000000000000000000000000000000000000000000000000000000600052601260045260246000fd5b600061253c8261202e565b91506125478361202e565b92508261255757612556612502565b5b600160000383147f8000000000000000000000000000000000000000000000000000000000000000831416156125905761258f612423565b5b828205905092915050565b60006125a68261202e565b91506125b18361202e565b9250827f7fffffffffffffffffffffffffffffffffffffffffffffffffffffffffffffff04821160008413600084131616156125f0576125ef612423565b5b817f8000000000000000000000000000000000000000000000000000000000000000058312600084126000841316161561262d5761262c612423565b5b827f8000000000000000000000000000000000000000000000000000000000000000058212600084136000841216161561266a57612669612423565b5b827f7fffffffffffffffffffffffffffffffffffffffffffffffffffffffffffffff05821260008412600084121616156126a7576126a6612423565b5b828202905092915050565b60006126bd8261202e565b91506126c88361202e565b9250827f80000000000000000000000000000000000000000000000000000000000000000182126000841215161561270357612702612423565b5b827f7fffffffffffffffffffffffffffffffffffffffffffffffffffffffffffffff01821360008412161561273b5761273a612423565b5b828203905092915050565b6000819050919050565b6000819050919050565b600061277561277061276b84612746565b612750565b611fb5565b9050919050565b6127858161275a565b82525050565b6000610100820190506127a1600083018b611f97565b6127ae602083018a611fa6565b6127bb6040830189612378565b6127c86060830188612378565b6127d56080830187612387565b6127e260a083018661277c565b6127ef60c0830185611fbf565b6127fc60e0830184611fbf565b9998505050505050505050565b600061281482611ebf565b915061281f83611ebf565b92508261ffff0382111561283657612835612423565b5b828201905092915050565b600061284c82611fb5565b915061285783611fb5565b92508261286757612866612502565b5b828204905092915050565b600061287d82611fb5565b915061288883611fb5565b92508282101561289b5761289a612423565b5b828203905092915050565b60006060820190506128bb6000830186611fa6565b6128c86020830185611fa6565b6128d56040830184611fbf565b949350505050565b6128e681611fce565b81146128f157600080fd5b50565b600081519050612903816128dd565b92915050565b60006020828403121561291f5761291e611eba565b5b600061292d848285016128f4565b91505092915050565b60006101008201905061294c600083018b611f97565b612959602083018a611fa6565b6129666040830189612378565b6129736060830188612378565b6129806080830187612387565b61298d60a0830186611fbf565b61299a60c0830185611fbf565b6129a760e0830184611fbf565b9998505050505050505050565b60006020820190506129c96000830184611fa6565b92915050565b6000815190506129de8161209d565b92915050565b6000602082840312156129fa576129f9611eba565b5b6000612a08848285016129cf565b91505092915050565b600060a082019050612a266000830188611f97565b612a336020830187611fa6565b612a406040830186611fa6565b612a4d6060830185611fbf565b612a5a6080830184611fbf565b9695505050505050565b600069ffffffffffffffffffff82169050919050565b612a8381612a64565b8114612a8e57600080fd5b50565b600081519050612aa081612a7a565b92915050565b600081519050612ab581612038565b92915050565b600080600080600060a08688031215612ad757612ad6611eba565b5b6000612ae588828901612a91565b9550506020612af688828901612aa6565b9450506040612b07888289016129cf565b9350506060612b18888289016129cf565b9250506080612b2988828901612a91565b915050929550929590935056fea26469706673582212207974c7d90950978a7d6f7d86616abb60119330180c10368f04aacfeee63f1a5464736f6c634300080c0033",
  "linkReferences": {},
  "deployedLinkReferences": {}
}